:020000040800F2
:1000000090070020010100080D180008FD0F0008EE
:10001000091800088F0900087F220008000000006E
:10002000000000000000000000000000691E000841
:10003000E50B000800000000511D00081901000830
:100040001B0100081B0100081B0100081B01000820
:100050001B0100081B0100081B0100081B01000810
:100060001B0100081B0100081B0100081B01000800
:100070001B0100081B0100081B0100081B010008F0
:100080001B0100081B0100081B0100081B010008E0
:100090001B0100081B0100081B0100081B010008D0
:1000A0001B0100081B0100081B0100081B010008C0
:1000B0001B0100081B0100081B0100081B010008B0
:1000C0001B0100081B0100081B0100081B010008A0
:1000D0001B010008DD1F0008652000081B01000847
:1000E0001B0100081B0100081B010008DFF80CD0F1
:1000F00000F0A8FB00480047752E0008900700207C
:100100000648804706480047FEE7FEE7FEE7FEE7B1
:10011000FEE7FEE7FEE7FEE7FEE7FEE77D1F0008DD
:10012000ED00000840EA01039B0703D009E008C97D
:10013000121F08C0042AFAD203E011F8013B00F8AC
:10014000013B521EF9D27047D2B201E000F8012BF8
:10015000491EFBD270470022F6E710B513460A4647
:1001600004461946FFF7F0FF204610BD421E12F864
:10017000013F002BFBD111F8013B02F8013B002BA2
:10018000F9D1704730B505462A460B4612F8010BE7
:1001900013F8014B08B1A042F8D01CB1002802D0DE
:1001A0006D1CF1E7284630BDCAB2401E10F8011F91
:1001B0008A4202D00029F9D100207047421C10F871
:1001C000011B0029FBD1801A704710B5044600E0DE
:1001D000401C0378002BFBD100E0401C521E04D3CE
:1001E00011F8013B0370002BF7D10021017020466C
:1001F00010BD034611F8012B00F8012B002AF9D19C
:100200001846704770B5064602F01EF904680546A8
:100210000A220021304600F002F92C6070BD2DE961
:10022000FE4F81EA030404F0004421F000410094F1
:100230004FF0000B23F0004350EA01045ED052EA75
:1002400003045BD0C3F30A54C1F30A552C44A4F24F
:10025000F3340194A0FB0254C1F3130141F4801163
:10026000C3F3130343F4801301FB024400FB034E6A
:10027000840A970A44EA815447EA8357A4FB076833
:1002800002958D0A05FB07854FEA932C04FB0C545D
:100290002705029D4FEA065847EA1637B5EB0805D1
:1002A0006EEB070C870E920E47EA811742EA831223
:1002B000A7FB0201B6EB0B0164EB00042B0D43EA34
:1002C0000C335E1844EB1C50DA465146E7FB020142
:1002D000C5F313044FEA0B3343EA14534FEA0432D5
:1002E000019C43EA0603A4F10C040294009CCDE9AE
:1002F00000B400F012F903B0BDE8F08F0020014611
:10030000F9E70EB540F2334102910021CDE9001129
:100310000A460B4600F001F903B000BD00F00042B0
:1003200030F000400AD0C10D01F56071C0F3160035
:1003300042EA0151C20840071143704700200146BC
:10034000704701F0004330B421F0004150EA01024F
:1003500006D00A0DA2F56072C1F31301002A02DC77
:1003600030BC00207047440F44EAC104C100E018CB
:1003700030BC00EBC25000F08AB80000002801DB5E
:10038000C0F10040002901DBC1F10041814270470A
:1003900030B50B46014600202022012409E021FA55
:1003A00002F59D4205D303FA02F5491B04FA02F552
:1003B0002844151EA2F10102F1DC30BD2DE9F05FE9
:1003C0000546002092469B468846064681464024C4
:1003D0001BE0284641464746224600F054FA534661
:1003E0005A46C01A914110D311461846224600F0D1
:1003F0003BFA2D1A67EB01084F46224601200021E7
:1004000000F032FA17EB00094E41201EA4F101045E
:10041000DFDC484631462A464346BDE8F09F2DE9D9
:10042000F04791460F4680460446002614F8015BCB
:100430002DB100F04BFA0068405DC007F6D12B2DBE
:1004400002D02D2D18D0641E4A463946204600F0B1
:1004500041FA27B13968A14201D1C7F8008071057E
:100460004FF002040BD54042002803DD01F0ECFF01
:100470000460A007BDE8F08746F48066E4E7002842
:10048000F8DA01F0E1FF04606FF00040F2E70029C4
:10049000A8BF7047401C490008BF20F0010070470A
:1004A00010B4B0FA80FC00FA0CF050EA010404BF6A
:1004B00010BC704749B1CCF1200421FA04F411FAC0
:1004C0000CF118BF012121430843A3EB0C01CB1D04
:1004D0004FEA00614FEA102042BF002010BC704775
:1004E00000EBC35010440029A4BF10BC7047401C4F
:1004F000490008BF20F0010010BC704710B5141E61
:1005000073F1000408DA401C41F1000192185B41CC
:100510001A4301D120F0010010BD2DE9F04D9246A3
:100520009B4611B1B1FA81F202E0B0FA80F22032BA
:10053000904600F099F904460F4640EA0A0041EA65
:100540000B0153465A46084313D0114653EA0100A3
:1005500019D0C8F14002504600F095F905460E4604
:1005600050465946424600F07FF9084305D0012025
:1005700004E020463946BDE8F08D0020054346EAF8
:10058000E0762C4337430A986305E40AA0EB0800A1
:100590000022FD0A44EA47540A3002D500200146F1
:1005A000E9E7010510196941DDE9084500196941CC
:1005B000BDE8F04DA2E72DE9FE4F804681EA030039
:1005C000C00F0C46009021F0004123F00045B8EB2D
:1005D0000200A94105D24046214690461C460B46E2
:1005E000024623F00040104347D0270DC7F30A000E
:1005F000C3F30A510290401A019040286BDAC3F30A
:10060000130040F4801B0098924620B10023D2EBE7
:10061000030A63EB0B0B01985946C0F140025046A8
:1006200000F022F906460D4650465946019A00F060
:100630003AF910EB08006141002487EA115284EA7C
:10064000E7731A4340D0009A62B3019A012A4FEA35
:10065000075215DC001B61EB02014FF0004202EA79
:100660000752CDE90042001C41F5801132462B466D
:10067000FFF753FF03B0BDE8F08F40462146F9E78E
:10068000001B61EB0201001C41F5801300185B4167
:100690002018A2F5001747EB030140EAD570B61900
:1006A0006D4111E06D084FEA360645EAC0754FEA24
:1006B0000752001B61EB0201001C41F58011490843
:1006C0004FEA30000019514132462B4603B0BDE8D5
:1006D000F04FFFF713BF0098012240000023D0EB3A
:1006E000020263EBE073009821464FEAE074B8EB36
:1006F000000061EB0401E9E783F000435BE781F070
:10070000004158E72DE9F04D81EA030404F0004B65
:1007100021F0004514464FF0000A23F0004150EA52
:10072000050220D054EA01021DD0C5F30A57024643
:10073000C5F31303C1F31300C1F30A5640F4801547
:1007400043F48013A7EB0608101BD64608F2FD38C9
:1007500073EB050002D308F1010801E092185B4138
:10076000B8F1000F03DA00200146BDE8F08D00204B
:100770004FF48011064684460EE0171B73EB050705
:1007800005D3121B63EB050306434CEA010C490831
:100790004FEA300092185B4150EA0107EDD152EA6E
:1007A000030012D082EA040083EA0501084305D061
:1007B000101BAB4106D20122002306E000224FF0BD
:1007C000004302E06FF0010253101AEB06004CEBFD
:1007D000085110EB0A0041EB0B01BDE8F04DFFF7AB
:1007E0008DBEC1F30A52C1F3130140F2FF3341F44D
:1007F00080119A4202DA00200146704740F23343EA
:100800009A42A2F2334202DC524200F03CB800F0BD
:100810002BB8000030B5041E71F1000404DB4FF06A
:100820000044404264EB0101141E73F1000405DB37
:100830001C464FF00043524263EB0403994208BF49
:10084000904230BD064C074D06E0E06840F00103E1
:1008500094E8070098471034AC42F6D3FFF74AFCFF
:100860000C3000082C300008202A04DB203A00FA63
:1008700002F1002070479140C2F1200320FA03F3F7
:10088000194390407047202A04DB203A21FA02F0F5
:100890000021704721FA02F3D040C2F120029140BA
:1008A000084319467047202A06DBCB17203A41FA45
:1008B00002F043EAE07306E041FA02F3D040C2F1ED
:1008C00020029140084319467047000000487047D5
:1008D000083000082DE9F05F8246007800271546B1
:1008E0008B460AF10104B946302801D09DB113E0CE
:1008F00014F8010B0127782803D0582801D045B1FE
:100900000AE00DB1102D07D10027102514F8010BB6
:1009100002E0082500E00A250026B0460EE005FBAF
:10092000080005FB06F1012701EB10461FFA80F8CD
:10093000B6F5803F00D3B94614F8010B294600F004
:1009400018F80028EBDABBF1000F05D00FB1641ED8
:1009500000E05446CBF80040B9F1000F06D001F09A
:1009600073FD02210160C81EBDE8F09F48EA064001
:10097000FAE73A2800D2303820F02002412A01D389
:10098000A2F13700884201D34FF0FF30704700BF1B
:10099000FEE7000010B5002400F064F804E0601CDD
:1009A000C4B2012002F00AFA0D48006808B1C82C50
:1009B000F5DBC82C01DB012010BD002404E0601C25
:1009C000C4B2012002F0FAF90548006808B9F02C19
:1009D000F5DBF02C01DB0120EEE70020ECE7000066
:1009E000200121422DE9F05F00F0C2F800F0AAF8E2
:1009F000FFF7D0FFCC2000F0C7F8BE2000F0C4F80D
:100A000000F08EF8834600F08BF8824654460BEBDC
:100A1000042084B204F47840B0F5784F0FD1E0435D
:100A2000401C84B22046FFF76CFC074600220B4BAB
:100A3000FFF7F5FB0546FFF784FC81460BE02046F7
:100A4000FFF75FFC05460022054BFFF7E8FB074672
:100A5000FFF777FC81464846BDE8F09F0000B0BF35
:100A60000000B03F08B54FF48070ADF8000048209A
:100A70008DF803006946024800F030FA08BD000016
:100A80000008014008B54FF48070ADF80000032065
:100A90008DF8020010208DF803006946014800F02F
:100AA0001DFA08BD0008014008B50121042001F02D
:100AB00061F94FF48070ADF8000003208DF802005A
:100AC00010208DF803006946034800F007FA00F093
:100AD00039F8FFF75FFF08BD0008014010B5FFF7C8
:100AE000D1FF00200C490860022002F067F90120C4
:100AF0000A49C1F8A001FFF7B5FF0C2002F05EF92A
:100B000005488038006808B1012400E00024322044
:100B100002F054F9204610BDA001214200002142FC
:100B200070B50026012508E0FFF7D8FF0446E00174
:100B300040EA6600C6B2681CC5B2082DF4DD304636
:100B400070BD000010B5FFF79DFF0020064908604A
:100B500040F2EE2002F032F901200449C1F8A00170
:100B60000F2002F02BF910BDA0012142000021420C
:100B700010B5FFF7E7FFFFF70DFFCC2000F004F8FA
:100B8000442000F001F810BD70B50446FFF77AFF6D
:100B9000012520E004F0010664106EB100200F4929
:100BA0000860022002F00AF901200D49C1F8A001F5
:100BB0003C2002F003F90CE00020084908603C20CA
:100BC00002F0FCF801200649C1F8A001022002F061
:100BD000F5F8681CC5B2082DDCDD70BDA00121420E
:100BE000000021427047000010B580210348FFF744
:100BF000B2FA00200249088010BD00001001002058
:100C00003600002070B50546002400BF00F04CF906
:100C100080B90DA10E48FFF7B5FA044654B13A2148
:100C20002046FFF7C1FA044614B1641C204670BD8B
:100C30000020FCE7052002F09BF8281EA5F1010129
:100C40008DB2E3D100BFF2E74950442C0000000010
:100C50001001002008B50121082001F08BF81020B8
:100C60008DF803000220ADF8000003208DF802008B
:100C70006946324800F032F9002202212F4800F084
:100C8000B8F9FA2002F074F8012202212B4800F092
:100C9000B0F94FF4FA7002F06BF8FFF7A5FF28A047
:100CA00001F0AEFB03E04FF4FA7002F061F8C822E5
:100CB00025A126A000F0AEF80028F4D125A001F06F
:100CC0009FFB03E04FF4FA7002F052F8C8221EA115
:100CD00023A000F09FF80028F4D125A001F090FB9C
:100CE00003E04FF4FA7002F043F8C82216A123A0E3
:100CF00000F090F80028F4D124A001F081FB03E07B
:100D00004FF4FA7002F034F8C82222A123A000F0B8
:100D100081F80028F4D12AA001F072FB03E04FF41F
:100D2000FA7002F025F8C82228A12AA000F072F873
:100D30000028F4D132A001F063FB08BD000C014093
:100D400041540D0A000000004F4B000041540D0AB1
:100D50000D00000043574D4F44450D0A00000000B0
:100D600041542B43574D4F44453D310D0A0000007F
:100D700041542B4357444843500D0A0041542B43E0
:100D800057444843503D312C310D0A0043574A41E6
:100D9000500D0A00474F54204950000041542B4346
:100DA000574A41503D225849414F4348554E222C05
:100DB0002233313138303033313637220D0A0000DA
:100DC00043495053544152540D0A0000434F4E4E74
:100DD0004543540041542B43495053544152543DD0
:100DE00022544350222C223138332E3233302E34C9
:100DF000302E3339222C363030320D0A00000000FC
:100E00004553503832363620496E6974204F4B0DA9
:100E10000A0000002DE9F04105460E46144628461A
:100E2000FFF7CCF987B23946284601F0D1FA0FE036
:100E300000F03AF848B931460948FFF7A3F920B164
:100E4000FFF7D2FE0020BDE8F0810A2001F090FFFC
:100E5000201EA4F101018CB2EAD10120F3E70000C9
:100E60001001002030B589B005460C46FFF7BCFEE6
:100E7000224608A101A801F0D3FAC82209A101A8BD
:100E8000FFF7C8FF18B92146284601F0A1FA09B0BA
:100E900030BD000041542B43495053454E443D253D
:100EA000640D0A003E0000000A48008808B90120CD
:100EB00070470848008808490988884203D1002003
:100EC00004490880F4E703480088034908800120AA
:100ED000EEE7000036000020380000202DE9F04148
:100EE000024600250026002000230024002791F858
:100EF00003C00CF00F0591F803C00CF0100CBCF10E
:100F0000000F03D091F802C04CEA050591F800C02B
:100F1000BCF1000F31D0146800202BE04FF0010C21
:100F20000CFA00F3B1F800C00CEA03069E4220D18F
:100F300083004FF00F0C0CFA03F7BC4305FA03FCD7
:100F40004CEA040491F803C0BCF1280F06D14FF01D
:100F5000010C0CFA00FCC2F814C00AE091F803C0BE
:100F6000BCF1480F05D14FF0010C0CFA00FCC2F89F
:100F700010C0401C0828D1D31460B1F800C0BCF1E7
:100F8000FF0F34DD546800202EE000F1080C4FF014
:100F9000010808FA0CF3B1F800C00CEA03069E42FF
:100FA00021D183004FF00F0C0CFA03F7BC4305FA74
:100FB00003FC4CEA040491F803C0BCF1280F05D1EE
:100FC00000F1080C08FA0CF8C2F8148091F803C07C
:100FD000BCF1480F07D100F1080C4FF0010808FAE6
:100FE0000CF8C2F81080401C0828CED35460BDE82D
:100FF000F0810AB1016100E04161704700BFFEE786
:1010000010B54FF4A06000F03BFC01F08FFE4FF4F0
:10101000E13001F037F94FF4E13001F083F900F0ED
:1010200029F806E007A001F0EBF94FF47A7001F01F
:101030009FFEFFF739FD0028F4D109A001F0E0F987
:1010400010BD000044533138423230BCECB2E2CA29
:10105000A7B0DCA3ACC7EBB2E5BAC3210D0A000010
:1010600044533138423230BCECB2E2B3C9B9A621A4
:101070000D0A000008B50121042000F07BFE0121CB
:10108000102000F077FE4FF40050ADF80000102063
:101090008DF8030003208DF8020069460348FFF72E
:1010A0001DFF01200249086008BD0000001001403A
:1010B000B401224210B50446207B012802D12068E9
:1010C00001F0B0FE002020606060A060207310BDC1
:1010D0000246002301230DE002F07F000870D209D0
:1010E0002AB1087840F080000870491C01E01846D9
:1010F00070475B1C042BEFDD4FF0FF30F8E770B555
:1011000004460E460025206898B901202073304619
:1011100001F002FF20602068E0B100206060A6605E
:1011200003E00020216848556D1CA068A842F8D84B
:1011300010E00220207303E00020216848556D1C58
:10114000A068A842F8D800206060A068B04201D230
:101150000020206070BD00002DE9FF5F07460D46AE
:1011600090463846FFF72AF886B22846FFF726F859
:101170001FFA80FA4FF00009B01D01F0CDFE0446C1
:101180001CB9012004B0BDE8F09FB11D2046FEF758
:10119000E2FF12A0016821608088A08032463946B3
:1011A0002046FFF712F82846FFF708F8834601208B
:1011B000002100915B462A46CDE9020801912146B3
:1011C0000A2000F05FF910B94FF0000901E04FF07C
:1011D0000109204601F026FE4846D3E724637273D6
:1011E000702F00002DE9FF4F83B082468B46914659
:1011F000159C0025002002900F2701904846FEF71D
:10120000DDFF0FFA80F8B9F1000F03D1012007B01C
:10121000BDE8F08F08F10200384487B2109808B199
:1012200045F00205129878B145F004051298FEF7D2
:10123000C5FFC0B202901398FEF7C0FF01460298A6
:10124000001D0844384487B2119820B1012804D009
:10125000022808D104E000BF07E045F00C0504E0D7
:1012600045F0140501E00220D1E700BF149808B151
:1012700045F02405BAF1000F02D0BBF1000F01D1F7
:101280000320C4E745F0C0055046FEF797FF064629
:101290005846FEF793FF3044001D384487B2394664
:1012A0002046FFF72CFF206808B90420AFE7394635
:1012B0002068FEF750FF10216268501C60602068B3
:1012C0008154D4E90023D118781FFFF701FF00B241
:1012D00001900198002804DA2046FFF7EBFE052074
:1012E00095E7616801980844606000216268501CBD
:1012F00060602068815404216268501C606020682E
:1013000081544D216268501C6060206881545121D5
:101310006268501C60602068815454216268501CCF
:101320006060206881546268501C6060206881544D
:1013300004216268501C6060206881546168481C08
:101340006060206845540698010A6268501C60601D
:10135000206881540698C1B26268501C60602068A1
:101360008154C8F307216268501C60602068815472
:101370006268501C6060206800F80280D4E90012A6
:10138000881842464946FEF720FF60684044606086
:1013900005F00400B8B30026139808B938A01390DC
:1013A0001298FEF70BFF86B2310A6268501C60602B
:1013B000206881546268501C606020688654D4E9BB
:1013C0000012881832461299FEF7FFFE606830441A
:1013D00060601398FEF7F2FE86B2310A6268501C14
:1013E0006060206881546268501C60602068865488
:1013F000D4E90012881832461399FEF7E6FE6068B9
:101400003044606000BF05F08000C8B15046FEF770
:10141000D5FE86B2310A6268501C60602068815433
:101420006268501C606020688654D4E900128818F5
:1014300032465146FEF7C9FE60683044606000BF26
:1014400005F04000C8B15846FEF7B8FE86B2310A32
:101450006268501C6060206881546268501C606043
:1014600020688654D4E90012881832465946FEF79F
:10147000ACFE60683044606000BF0020C7E600003A
:10148000000000002DE9FF4F83B083469046994647
:10149000139C002600250020029001900027BBF13C
:1014A000000F03D1012007B0BDE8F08F00250AE04E
:1014B0000498405D232803D00498405D2B2801D177
:1014C0000220F0E76D1C0498405D0028F0D147F041
:1014D0003007119808B147F0010705EB0900861C99
:1014E000109820B1012804D002280AD105E000BFDD
:1014F00009E047F00207B61C05E047F00407B61CF8
:1015000001E00320CFE700BF98F80000022822D1B5
:101510004FF0000A00BF50460AF1010A18F8000017
:101520007D28F8D1AAF1030A0AF107000290029877
:10153000A9EB000AF01CA0EB0A012046FFF7DFFD33
:10154000206808B90420AEE7F21CA2EB0A0120686B
:10155000FEF701FE0BE0F11C2046FFF7D0FD2068EE
:1015600008B904209FE7F11C2068FEF7F4FD6168CC
:10157000481C606020684754D4E900028118304656
:10158000FFF7A6FD01900198002804DA2046FFF736
:1015900091FD052087E76168019808446060C5F304
:1015A00007216268501C6060206881546268501C8A
:1015B000606020688554D4E9001288182A4604998E
:1015C000FEF703FE606828446060109860B14FEA3F
:1015D0001B216268501C6060206881546268501C46
:1015E0006060206800F802B0B8F1000F19D098F8D8
:1015F000000002280BD1D4E9001288184146029A53
:10160000FEF790FD616802980844606009E0D4E943
:10161000001288184A464146FEF784FD6068484437
:10162000606000203FE700002DE9FF4107460D46BE
:1016300090461E460A9C01200021CDE90001EB1CCA
:101640000A460FA1CDE902040A20FFF71BFF88B963
:101650006168481C606020684654C5F307216268D1
:10166000501C6060206881546268501C6060206873
:10167000855403E0012004B0BDE8F0810020FAE7C2
:1016800024647000F0B504460D4626460123002070
:101690001060002114E0775C07F07F07106807FBFB
:1016A00003001060705C00F0800008B9481CF0BDB9
:1016B000DB01B3F5001F02D36FF00100F7E7491C0F
:1016C000A942E8DB4FF0FF30F1E72DE9F84380460F
:1016D0000C4615461E462F2108F10600FEF764FD54
:1016E00007460020009017B90120BDE8F8837F1C51
:1016F0006A46042108F10100FFF7C4FF252001F02C
:101700000BFC2060206808B90220EEE72521206844
:10171000FEF721FD242239462068FEF703FD243719
:1017200000982C3830803188481C01F0F5FB286087
:10173000286820B9206801F075FB0320D5E73288BE
:10174000511C2868FEF707FD328839462868FEF7E5
:10175000E9FC0020C9E701464878022801D00120B1
:101760007047887810B18878012801D1C878F7E7E8
:10177000FF20F5E701464878022801D00120704794
:10178000887820B9C8780A2801D10020F7E701201D
:10179000F5E70000F8B50446FF2720780511012D74
:1017A00001DB0E2D01DD3846F8BD032D24D10020CC
:1017B00000906A460421601CFFF764FF2044461C29
:1017C0000098022803D3207800F0010008B1FF2020
:1017D000EAE77078317840EA0120801C009988425D
:1017E00001D9FF20E0E706A1B01CFEF7CBFC08B151
:1017F0000F2700E0032700E02F463846D4E700001B
:10180000246372657100000000BFFEE770470000AE
:1018100070B5002100230F22C47804B3154C24684E
:1018200004F4E064C4F5E064210AC1F10403CA4091
:10183000447804FA03F184781440214309010E4CE2
:101840000678A155047804F01F050124AC40057802
:101850006D11AD0005F1E025C5F8004109E00478FF
:1018600004F01F050124AC40044D0678761145F8BC
:10187000264070BD0CED00E000E400E080E100E0F7
:1018800002490143024A1160704700000000FA0556
:101890000CED00E010B5FFF7DDF903E04FF4FA704E
:1018A00001F066FA00F008F80028F7D10149086055
:1018B00010BD0000B401224230B58BB0002007906B
:1018C000089009900A9001252BA32EA22FA131A0E8
:1018D00000F096FD07A8002102910391CDE90410C4
:1018E00000912B0224A2019126A128A0FFF77AFCE7
:1018F00000283BD1089A91B20798FFF7B3FAFA2073
:10190000FFF780F90446002C2CD02046FFF742FF59
:10191000022827D12046FFF71EFF06281DD2DFE848
:1019200000F003080C10141826A000F069FD002533
:1019300017E029A000F064FD13E02EA000F060FD88
:101940000FE035A000F05CFD0BE03BA000F058FD7F
:1019500007E042A000F054FD03E04BA000F050FD72
:1019600000BF00BF07A8FFF7A5FB02E04DA000F0F5
:1019700047FD28460BB030BD373836303631363962
:101980003100000031323334000000003435373488
:10199000323000004F6E654E65745F4465764C6969
:1019A0006E6B0D0A50524F49443A2025732C094161
:1019B0005549463A2025732C0944455649443A2551
:1019C000730D0A00546970733A09C1ACBDD3B3C931
:1019D000B9A60D0A000000005741524E3A09C1ACA9
:1019E000BDD3CAA7B0DCA3BAD0ADD2E9B4EDCEF373
:1019F0000D0A00005741524E3A09C1ACBDD3CAA7E7
:101A0000B0DCA3BAB7C7B7A8B5C4636C69656E7418
:101A100069640D0A000000005741524E3A09C1ACFA
:101A2000BDD3CAA7B0DCA3BAB7FECEF1C6F7CAA72A
:101A3000B0DC0D0A000000005741524E3A09C1AC1B
:101A4000BDD3CAA7B0DCA3BAD3C3BBA7C3FBBBF249
:101A5000C3DCC2EBB4EDCEF30D0A00005741524E89
:101A60003A09C1ACBDD3CAA7B0DCA3BAB7C7B7A8FF
:101A7000C1B4BDD328B1C8C8E7746F6B656EB7C772
:101A8000B7A8290D0A0000004552523A09C1ACBD61
:101A9000D3CAA7B0DCA3BACEB4D6AAB4EDCEF30DA8
:101AA0000A0000005741524E3A094D5154545F50BC
:101AB00061636B6574436F6E6E6563742046616924
:101AC0006C65640D0A00000070B588B004462021E2
:101AD0006846FEF740FB1CA12046FEF78AFB20214A
:101AE0006846FEF738FB1948027819A1684600F0ED
:101AF00097FC69462046FEF739FB20216846FEF731
:101B00002AFB1548027815A1684600F089FC694651
:101B10002046FEF72BFB20216846FEF71CFB1248EF
:101B20000068FEF7FBFB05462A460B460FA16846F8
:101B300000F076FC69462046FEF718FB2046FEF7CB
:101B40003DFBC0B208B070BD2C3B00003A00002045
:101B50006B65792C25643B003B0000206B6E6F6247
:101B60002C25643B000000000000002054656D70CF
:101B70002C252E32663B00002DE9F0418AB08046CC
:101B8000002006900790089009900590049003901B
:101B900000260027002400254046FFF7FBFD0646EF
:101BA000042E18D00F2E1CD103AB05AA04A9404661
:101BB000FFF78BFD07466FB906AADDE90401FFF7C1
:101BC000CBFA38B9079A91B20698FFF74BF906A8F5
:101BD000FFF770FA08E04046FFF7CCFD00B903E0DC
:101BE00000BF4FF0FF3700BF00BFFEF7FDFF781CBE
:101BF00010B90AB0BDE8F0813A210598FEF7D4FA91
:101C00000446002C34D0781C002831D0641C05E038
:101C100014F8012B28466D1C0DF800202078302880
:101C200002DB20783928F3DD00200DF80500684636
:101C3000FEF7E8FA054614A10598FEF7A3FA60B18D
:101C4000294612A000F0DCFB13490D700DB90120EC
:101C500000E00020114908600AE011A10598FEF794
:101C600091FA28B1294610A000F0CAFB11490D7065
:101C70000F2E01D0032E05D1049801F0D3F805985A
:101C800001F0D0F800BFB4E76B6579006B6579208F
:101C90003D2025640D0A00003A000020B4012242D4
:101CA0006B6E6F62000000006B6E6F62203D20253E
:101CB000640D0A003B00002030B5A5B00020219043
:101CC00022902390249000240025802101A8FEF773
:101CD00042FA01A8FFF7F8FE0446002C20D021A804
:101CE00005230022214600900EA0FFF79DFCA0B91D
:101CF00008E001A8415D229A501C2290219881544D
:101D0000681C05B2A542F4DB229A91B22198FFF734
:101D1000A9F821A8FFF7CEF902E005A000F070FBBA
:101D200025B030BD37383630363136393100000015
:101D30005741524E3A094544505F4E6577427566A9
:101D4000666572204661696C65640D0A00000000DA
:101D50007047000029B1064AD2690243044BDA6198
:101D600004E0034AD2698243014BDA617047000004
:101D70000010024029B1064A92690243044B9A615D
:101D800004E0034A92698243014B9A617047000064
:101D90000010024030B500210022002400232D4D08
:101DA0006D6805F00C0121B1042905D0082923D163
:101DB00005E0294D056022E0274D05601FE0254D17
:101DC0006D6805F47012234D6D6805F480340225AA
:101DD00005EB92421CB9214D554305600BE01D4DAA
:101DE0006D6805F400351DB11C4D5543056002E0DA
:101DF000194D5543056002E0174D056000BF00BF57
:101E0000144D6D6805F0F0010909154D6B5C05680E
:101E1000DD4045600F4D6D6805F4E061090A104D25
:101E20006B5C4568DD4085600A4D6D6805F4605166
:101E3000C90A0B4D6B5C4568DD40C560054D6D689A
:101E400005F44041890B074D6B5CC568B5FBF3F5A4
:101E5000056130BD0010024000127A0000093D000B
:101E60002200002032000020704710B500F002F878
:101E700010BD00000CB500200190009033480068B0
:101E800040F480303149086000BF3048006800F4F9
:101E9000003000900198401C0190009818B90198FA
:101EA000B0F5A06FF1D12948006800F4003010B1FE
:101EB0000120009001E0002000900098012843D10B
:101EC0002348006840F01000214908600846006877
:101ED00020F0030008600846006840F00200086037
:101EE0001A484068194948600846406848600846F2
:101EF000406840F4806048600846406820F47C10E8
:101F000048600846406840F4E810486008460068A9
:101F100040F08070086000BF0C48006800F000705E
:101F20000028F9D00948406820F0030007494860BC
:101F30000846406840F00200486000BF034840681F
:101F400000F00C000828F9D10CBD00000010024080
:101F500000200240042808D14FF0E021096941F037
:101F600004014FF0E022116107E04FF0E021096920
:101F700021F004014FF0E0221161704710B51348C1
:101F8000006840F0010011490860084640681049A7
:101F900008400E494860084600680E4908400B4951
:101FA00008600846006820F4802008600846406801
:101FB00020F4FE0048604FF41F008860FFF755FFD3
:101FC0004FF000600449086010BD0000001002409E
:101FD0000000FFF8FFFFF6FE08ED00E010B540F24C
:101FE00025511D4800F086F810B31B4800F03EF95B
:101FF000C4B21A48008800F40040C8B917480088E5
:1020000000F4804060B10A2C03D0002013490880FE
:1020100020E01248008840F400401049088019E090
:102020000D2C06D10D48008840F480400B490880F3
:1020300010E00A480088C0F30D0009490C54074815
:102040000088401C0549088008460088C72801DD33
:102050000020088010BD0000003801402000002052
:102060004800002010B540F225510E4800F042F81B
:10207000B0B10D480088802802D300200A490880AA
:102080000848001D0088C1B2074802880088401C2B
:10209000054B1880054881542021024800F008F8BB
:1020A00010BD000000440040360000201001002058
:1020B00001F40072B2F5007F00D100BFCA43028074
:1020C000704721B1828942F40052828104E0828902
:1020D0004DF6FF731A408281704702460020B1F529
:1020E000007F00D100BF13880B400BB1012000E03E
:1020F0000020704770B50246002400230025002010
:1021000040F66A16B14200D100BFC1F3421501F09A
:102110001F03012606FA03F3012D02D196893340ED
:1021200006E0022D02D1168A334001E0968A334040
:102130000C12012606FA04F41688344013B10CB1CF
:10214000012000E0002070BDF0B503460024002609
:102150000025002040F66A17B94200D100BF18469A
:10216000C1F3421401F01F06012707FA06F5012CFE
:1021700001D10C3004E0022C01D1103000E0143009
:102180001AB107682F43076002E00768AF43076092
:10219000F0BD00002DE9F04786B005460E4600244C
:1021A000A24600BFA1460027B08900B100BF2F465C
:1021B0002C8A4CF6FF700440F08804432C82AC89D2
:1021C0004EF6F3100440B088318908437189084302
:1021D0000443AC81AC8A4FF6FF400440B08904430D
:1021E000AC8201A8FFF7D6FD1F48874202D1DDF877
:1021F00010A001E0DDF80CA0A88900F4004040B177
:102200000AEBCA0000EB0A1031684900B0FBF1F894
:1022100007E00AEBCA0000EB0A1031688900B0FB46
:10222000F1F86420B8FBF0F004012009642101FBFF
:102230001089A88900F4004040B1322000EBC900A9
:10224000B0FBF1F000F00700044308E0322000EB9F
:1022500009106421B0FBF1F000F00F0004432C8161
:1022600006B0BDE8F08700000038014001468888CC
:10227000C0F308007047C1F308028280704700BFB6
:10228000FEE7000010B586B00446012144F20400C8
:10229000FFF770FD4FF40070ADF8140003208DF8C7
:1022A000160018208DF8170005A91C48FEF716FE29
:1022B0004FF48060ADF8140004208DF8170005A9D4
:1022C0001648FEF70BFE25208DF8000003208DF840
:1022D00001008DF8020001208DF803006846FFF729
:1022E00097FA01940020ADF80800ADF80A00ADF8A7
:1022F0000C00ADF810000C20ADF80E0001A9084844
:10230000FFF748FF012240F225510548FFF71CFF67
:1023100001210348FFF7D5FE06B010BD00080140BB
:102320000038014010B586B0044601210420FFF7B3
:1023300021FD01214804FFF70DFD18208DF817003D
:102340000420ADF8140003208DF8160005A91E48DE
:10235000FEF7C4FD04208DF817000820ADF8140026
:1023600003208DF8160005A91748FEF7B7FD019464
:102370000020ADF810000C20ADF80E000020ADF8E4
:102380000C00ADF80A00ADF8080001A90F48FFF7EE
:1023900001FF01210D48FFF794FE012240F2255173
:1023A0000A48FFF7D1FE26208DF8000001208DF8A5
:1023B000030000208DF801008DF802006846FFF749
:1023C00027FA06B010BD000000080140004400409C
:1023D00070B504460D4600260DE014F8011B0748B1
:1023E000FFF749FF00BF40210448FFF776FE0028B1
:1023F000F9D0701C86B2AE42EFDB70BD00440040E5
:102400000FB4054B10B503A9044A029800F0F2F886
:1024100010BC5DF814FB0000092E00081C00002011
:102420000FB4084B10B504A902AA039800F0E2F813
:10243000044602A9002000F074FC204610BC5DF8A0
:1024400014FB0000232D00080048704744000020C2
:1024500002E008C8121F08C1002AFAD1704770476D
:10246000002001E001C1121F002AFBD170470000CB
:102470002DE9FF5F82B00021DDE90430020DDDF8B7
:1024800040B0034318D044F61050A2F2FF3242434A
:102490001514119801281FD0A5EB0B00401C5FEA12
:1024A000000A4FF000064E4FDFF83891B046504614
:1024B00015D5CAF1000413E0119801244AA301289C
:1024C00001D16FEA0B010298119AC0E90031C0E90D
:1024D000024206B0BDE8F09FCBF10000DFE7044602
:1024E0000021404A491842EB0450CDE9001012E0A7
:1024F000E00707D032463B4640464946FDF78FFE8F
:102500008046894632463B4610461946FDF787FE0F
:1025100006460F466410002CEAD1DDE90401DDE92E
:102520000023BAF1000F06DAFDF779FE42464B466A
:10253000FDF775FE05E0FEF7E5F842464B46FEF76F
:10254000E1F804460E460022284BFEF763F903D853
:102550004FF0FF30014607E00022254B2046314670
:10256000FEF729F8FEF73DF9102409E0002C0ADBFC
:102570000A220023FDF722FF039B30321A55641E06
:1025800050EA0102F2D1641C039AC4F1110314440D
:10259000119A012A03D0012208430DD10AE0084311
:1025A00004D000204FF0110B119072E7A3EB0B0544
:1025B0006D1E0DE05B4504DD4FF0000205F10105E5
:1025C00004E003DA4FF00002A5F10105002AECD087
:1025D00002981199C0E90231C0E9004579E700008D
:1025E000000014400000F03F300000000000F04305
:1025F0000000E03F2DE9FF4F95B09B468946064617
:1026000000250FE2252877D100242746F84A01212A
:10261000059400E0044316F8013F203B01FA03F063
:102620001042F7D130782A2811D06FF02F0330787C
:10263000A0F13002092A16D8059A44F0020402EBF0
:10264000820203EB42021044761C0590EFE759F832
:10265000042B0592002A03DA504244F400540590FA
:1026600044F00204761C30782E2816D116F8010F9B
:1026700044F004042A280DD06FF02F023078A0F126
:102680003003092B09D807EB870302EB4303C71874
:10269000761CF3E759F8047B761C30786C280FD051
:1026A00006DC4C2817D068280DD06A2814D104E025
:1026B000742810D07A280FD10DE044F400140AE0F9
:1026C00044F4801401E044F440147278824202D150
:1026D00004F58014761C761C307866280BD013DC49
:1026E000582877D009DC002875D04528F6D0462830
:1026F000F4D047281AD19DE118E0632835D064282A
:1027000079D0652812D195E1702873D008DC67284C
:10271000F1D069286FD06E280DD06F2806D1B5E0B2
:1027200073282CD0752875D0782874D05A461799FC
:1027300090476D1C75E1C4F30250022809D00328AC
:102740000DD0D9F8001004280DD00D6009F104094E
:1027500067E1D9F80010EA17C1E90052F6E7D9F8A5
:1027600000100D80F2E70D70F0E719F8041B8DF8EA
:10277000001000208DF80100EA46012003E059F81E
:1027800004AB4FF0FF3061074FF0000102D40DE0C1
:1027900008F101018846B9420FDA8045F8DB1AF8E2
:1027A00008100029F4D108E008F1010188468142AF
:1027B000FADB1AF808100029F6D105985B46A0EB61
:1027C000080721463846179A00F094FA284400EB8F
:1027D000080507E04DE029E10DE01AF8010B5A4623
:1027E00017999047B8F10108F7D25B462146384661
:1027F000179A13E142E00A220092C4F302524FF00A
:10280000000A022A08D059F804CB032A4FEAEC71D7
:102810000AD00DE029E02AE009F1070121F00702C2
:10282000F2E802C1914609E00FFA8CFC4FEAEC7124
:10283000042A03D14FFA8CFC4FEAEC71002907DA25
:102840000A460021DCF1000C61EB02012D2202E0BE
:10285000220504D52B228DF80420012203E0E20793
:1028600001D02022F7E7904659E00A2102E0102229
:102870000DE010214FF0000A00910BE010224FF004
:10288000000A44F004040827009203E008224FF0F5
:10289000000A0092C4F30252022A05D059F804CB70
:1028A0000021032A08D009E009F1070121F00702FD
:1028B000F2E802C1914605E01FFA8CFC042A01D11E
:1028C0000CF0FF0C4FF00008220728D5702806D026
:1028D000009B83F0100353EA0A0305D00EE0402268
:1028E0008DF80420012208E05CEA010206D03022C3
:1028F0008DF804208DF8050002229046009B83F09D
:10290000080353EA0A030AD15CEA010201D1620713
:1029100005D530228DF804204FF001087F1E58287D
:1029200004D034A003900EA802900DE036A0F9E781
:1029300053466046009AFDF741FD84460398825C49
:102940000298401E029002705CEA0100F0D10298E9
:1029500006A9081A00F1200A600702D524F4803481
:1029600000E00127574502DDA7EB0A0000E0002048
:1029700000EB0A01009005984144401A0590E003DD
:1029800006D45B462146179A059800F0B3F9054432
:10299000002706E001A85A46C05D179990476D1CB4
:1029A0007F1C4745F6DBE0030CD55B462146179AB2
:1029B000059800F09FF9054404E030205A46179925
:1029C00090476D1C0099481E00900029F5DC08E036
:1029D000029802995A460078491C0291179990472B
:1029E0006D1CBAF10001AAF1010AF1DC65E10000F9
:1029F00009280100303132333435363738396162D5
:102A00006364656600000000303132333435363798
:102A100038394142434445460000000000F058F96F
:102A20000544761C307800287FF4ECAD19B02846B8
:102A3000BDE8F08F620700D4062709F1070222F0F3
:102A4000070CFCE80223E14603F000485FEA080CAB
:102A500002D00FF2702C0DE05FEA045C02D50FF299
:102A6000682C07E05FEAC47C02D00FF2602C01E022
:102A7000AFF2700C4FF0FF3823F00043CDF850C098
:102A800065280CD006DC452809D046281DD04728EB
:102A90003DD13DE0662818D067287ED138E000217E
:102AA000112F01DB112000E0781CCDE9000106A9FF
:102AB0000EA8FFF7DDFCDDE90F010E9A039100215E
:102AC000009207F1010A04914DE04FF00040009799
:102AD000CDE9011006A90EA8FFF7CAFCDDE90F0237
:102AE00003920E9B11990022DDF80CA00093049232
:102AF00011B9791C00EB010AB7EB0A0004D4C0F14C
:102B0000FF3007F1010A0490AAEB0700019044E0AE
:102B1000012F00DA01270021112F01DD112000E033
:102B20003846CDE9000106A90EA8FFF7A1FCDDE9B2
:102B30000F010E9A0391002104910092BA462107D9
:102B40000CD40399514500DA8A46BAF1010F05DD2C
:102B5000009AAAF10101515C302908D0B84202DA8A
:102B600010F1040F06DA0121CDE9011015E0AAF1F8
:102B70000101E9E7002805DC049901440491AAEB6E
:102B8000000102E0411C514500DD8A460499401ACB
:102B9000401C01904FF000400290200704D401989F
:102BA000504501DBCDF8048000208DF84F000298DD
:102BB0000DF14F07B0F1004F25D02B200E90029859
:102BC0004FF0020800280CDA404202902D200E90AF
:102BD00007E00A210298FDF7DBFB3031029007F88D
:102BE000011DB8F10001A8F10108F2DC02980028EB
:102BF000EFD1791E0E980870307800F0200040F078
:102C0000450007F8020D12A8C01B00F10708149830
:102C1000007800B1012000EB0A01019801EBE0719E
:102C200005984144401A401E0590E00306D45B46D7
:102C30002146179A059800F05DF80544149800782D
:102C400018B15A46179990476D1CE00324D55B468E
:102C50002146179A059800F04DF805441CE00498A9
:102C6000002807DBDDE90301884203DD0098405CB2
:102C7000179901E0179930205A469047049805F1BA
:102C80000105401C04900198401E019004D12E20A3
:102C90005A46179990476D1CBAF10001AAF1010A32
:102CA000DDDC05E017F8010B5A46179990476D1CBB
:102CB000B8F10001A8F10108F4DC5B462146179A3F
:102CC0000598ABE62D0000002B000000200000005E
:102CD0002DE9F041044600251E461746880404D419
:102CE00005E039462020B0476D1C641EF9D5284602
:102CF000BDE8F0812DE9F041044600251E469046CE
:102D0000C80301D5302700E02027880404D505E05A
:102D100041463846B0476D1C641EF9D52846BDE8CB
:102D2000F0810A68531C0B601070704710B56FF08B
:102D30000400FFF70FF90A4800680A49B0FBF1F0F8
:102D4000094908700846007800EB4001C1EBC0104B
:102D50004FF6FF7101EAC0000449088010BD000071
:102D60000400002000127A00180000201A00002041
:102D70000146114A12884A434FF0E0235A6100226B
:102D80009A611A46126942F001021A6100BF4FF0BF
:102D9000E022106900F001021AB100F48032002A2A
:102DA000F5D04FF0E022126922F001024FF0E0234B
:102DB0001A6100229A6170471A0000200146114AE8
:102DC00012784A434FF0E0235A6100229A611A4672
:102DD000126942F001021A6100BF4FF0E02210694F
:102DE00000F001021AB100F48032002AF5D04FF051
:102DF000E022126922F001024FF0E0231A61002262
:102E00009A6170471800002000BF054A128802F03E
:102E10004002002AF9D0C2B2014B1B1D1A80704734
:102E20000038014010B5002821D0114B0022001FAE
:102E3000196803E0814203D80A4649680029F9D19C
:102E400052B11368841A9C4204D10068184410607F
:102E5000104602E0506000E0186039B102680B1AB9
:102E6000934203D10B681A4402604968416010BD67
:102E70003C00002000244FF49675FEF7C1F8FEF7E1
:102E800009FD2FE00A20FFF773FF681C85B2B5F536
:102E9000967F1FDBFDF7A6FD13490860002112484D
:102EA0000068FDF76BFA03D210A0FFF7A9FA02E061
:102EB00012A0FFF7A5FA0C480068FDF72FFA0646A6
:102EC00032460B4611A0FFF79BFAFEF7F5FE0025F0
:102ED000FDF78AFE0020FDF795FE044614B120465A
:102EE000FEF74AFECEE7000000000020BCECB2E294
:102EF000B5C4CEC2B6C8CEAAA3BA2D00BCECB2E20D
:102F0000B5C4CEC2B6C8CEAAA3BA2000252E32665A
:102F1000A1E3430D0A000000F0B50B30154D20F081
:102F200007010024144A0FE003688B420BD38B4245
:102F300005D95E1A43184768C3E9006700E0436893
:102F4000136002C004E0021D10680028ECD1204686
:102F5000002802D1286808B10020F0BD064A0748C1
:102F60001060074A121A22F00702C0E9002401206B
:102F70002860D7E7400000203C000020940100209A
:102F800090030020004040404040404040404141CC
:102F9000414141404040404040404040404040402E
:102FA00040404040400502020202020202020202C8
:102FB00002020202022020202020202020202002C5
:102FC0000202020202029090909090901010101055
:102FD00010101010101010101010101010101010F1
:102FE0000202020202028888888888880808080885
:102FF0000808080808080808080808080808080851
:103000000202020240000000852F00082C30000858
:103010000000002048000000502400087430000820
:10302000480000204807000060240008000000005D
:1030300000A24A0400000000000000000102030496
:103040000607080900000000000000000000000062
:103050000000010203040102030406070809020438
:103060000608000000000000000000000000000052
:04307000000000005C
:0400000508000101ED
:00000001FF
